{
  "_format": "hh-sol-artifact-1",
  "contractName": "FHELottery",
  "sourceName": "contracts/FHELottery.sol",
  "abi": [
    {
      "inputs": [],
      "stateMutability": "nonpayable",
      "type": "constructor"
    },
    {
      "inputs": [],
      "name": "encryptedTarget",
      "outputs": [
        {
          "internalType": "bytes",
          "name": "",
          "type": "bytes"
        }
      ],
      "stateMutability": "view",
      "type": "function"
    },
    {
      "inputs": [
        {
          "internalType": "address",
          "name": "player",
          "type": "address"
        }
      ],
      "name": "getGuess",
      "outputs": [
        {
          "internalType": "bytes",
          "name": "",
          "type": "bytes"
        }
      ],
      "stateMutability": "view",
      "type": "function"
    },
    {
      "inputs": [],
      "name": "getPlayers",
      "outputs": [
        {
          "internalType": "address[]",
          "name": "",
          "type": "address[]"
        }
      ],
      "stateMutability": "view",
      "type": "function"
    },
    {
      "inputs": [
        {
          "internalType": "address",
          "name": "player",
          "type": "address"
        }
      ],
      "name": "getProof",
      "outputs": [
        {
          "internalType": "bytes",
          "name": "",
          "type": "bytes"
        }
      ],
      "stateMutability": "view",
      "type": "function"
    },
    {
      "inputs": [],
      "name": "getWinner",
      "outputs": [
        {
          "internalType": "address",
          "name": "",
          "type": "address"
        }
      ],
      "stateMutability": "view",
      "type": "function"
    },
    {
      "inputs": [
        {
          "internalType": "address",
          "name": "",
          "type": "address"
        }
      ],
      "name": "guesses",
      "outputs": [
        {
          "internalType": "bytes",
          "name": "",
          "type": "bytes"
        }
      ],
      "stateMutability": "view",
      "type": "function"
    },
    {
      "inputs": [],
      "name": "owner",
      "outputs": [
        {
          "internalType": "address",
          "name": "",
          "type": "address"
        }
      ],
      "stateMutability": "view",
      "type": "function"
    },
    {
      "inputs": [
        {
          "internalType": "uint256",
          "name": "",
          "type": "uint256"
        }
      ],
      "name": "players",
      "outputs": [
        {
          "internalType": "address",
          "name": "",
          "type": "address"
        }
      ],
      "stateMutability": "view",
      "type": "function"
    },
    {
      "inputs": [
        {
          "internalType": "address",
          "name": "",
          "type": "address"
        }
      ],
      "name": "proofs",
      "outputs": [
        {
          "internalType": "bytes",
          "name": "",
          "type": "bytes"
        }
      ],
      "stateMutability": "view",
      "type": "function"
    },
    {
      "inputs": [],
      "name": "resetTarget",
      "outputs": [],
      "stateMutability": "nonpayable",
      "type": "function"
    },
    {
      "inputs": [
        {
          "internalType": "bytes",
          "name": "_encryptedTarget",
          "type": "bytes"
        }
      ],
      "name": "setTarget",
      "outputs": [],
      "stateMutability": "nonpayable",
      "type": "function"
    },
    {
      "inputs": [
        {
          "internalType": "address",
          "name": "_winner",
          "type": "address"
        }
      ],
      "name": "setWinner",
      "outputs": [],
      "stateMutability": "nonpayable",
      "type": "function"
    },
    {
      "inputs": [
        {
          "internalType": "bytes",
          "name": "encryptedGuess",
          "type": "bytes"
        },
        {
          "internalType": "bytes",
          "name": "proof",
          "type": "bytes"
        }
      ],
      "name": "submitGuess",
      "outputs": [],
      "stateMutability": "nonpayable",
      "type": "function"
    },
    {
      "inputs": [],
      "name": "targetSet",
      "outputs": [
        {
          "internalType": "bool",
          "name": "",
          "type": "bool"
        }
      ],
      "stateMutability": "view",
      "type": "function"
    },
    {
      "inputs": [],
      "name": "winner",
      "outputs": [
        {
          "internalType": "address",
          "name": "",
          "type": "address"
        }
      ],
      "stateMutability": "view",
      "type": "function"
    }
  ],
  "bytecode": "0x608060405234801561000f575f80fd5b50600580546001600160a01b03191633179055610b418061002f5f395ff3fe608060405234801561000f575f80fd5b50600436106100f0575f3560e01c8063a01e0f9a11610093578063dfbf53ae11610063578063dfbf53ae14610204578063dfe8f6571461021c578063f71d96cb14610224578063ff38122014610237575f80fd5b8063a01e0f9a146101ae578063a4208b70146101cb578063a795f9e2146101de578063d9fca769146101f1575f80fd5b80634ef9b89c116100ce5780634ef9b89c146101455780638b5b9ccc146101585780638da5cb5b1461016d5780638e7ea5b214610198575f80fd5b80633002a40b146100f457806338903841146101095780633eea79d11461011c575b5f80fd5b6101076101023660046107a3565b61023f565b005b61010761011736600461080a565b61034b565b61012f61012a366004610849565b610404565b60405161013c9190610876565b60405180910390f35b61012f610153366004610849565b6104ad565b610160610544565b60405161013c91906108c2565b600554610180906001600160a01b031681565b6040516001600160a01b03909116815260200161013c565b60045461010090046001600160a01b0316610180565b6004546101bb9060ff1681565b604051901515815260200161013c565b61012f6101d9366004610849565b6105a4565b61012f6101ec366004610849565b6105ca565b6101076101ff366004610849565b6105e2565b6004546101809061010090046001600160a01b031681565b610107610668565b61018061023236600461090e565b610729565b61012f610751565b60045460ff166102965760405162461bcd60e51b815260206004820152601260248201527f546172676574206e6f742073657420796574000000000000000000000000000060448201526064015b60405180910390fd5b335f90815260208190526040902080546102af90610925565b90505f0361031157600280546001810182555f919091527f405787fa12a823e0f2b7631cc41b3ba8828b3321ca811111fa75cd3aa3bb5ace0180547fffffffffffffffffffffffff000000000000000000000000000000000000000016331790555b335f90815260208190526040902061032a8486836109ba565b50335f9081526001602052604090206103448284836109ba565b5050505050565b6005546001600160a01b031633146103925760405162461bcd60e51b815260206004820152600a60248201526927b7363c9037bbb732b960b11b604482015260640161028d565b60045460ff16156103e55760405162461bcd60e51b815260206004820152601260248201527f54617267657420616c7265616479207365740000000000000000000000000000604482015260640161028d565b60036103f28284836109ba565b50506004805460ff1916600117905550565b6001600160a01b0381165f90815260016020526040902080546060919061042a90610925565b80601f016020809104026020016040519081016040528092919081815260200182805461045690610925565b80156104a15780601f10610478576101008083540402835291602001916104a1565b820191905f5260205f20905b81548152906001019060200180831161048457829003601f168201915b50505050509050919050565b5f60208190529081526040902080546104c590610925565b80601f01602080910402602001604051908101604052809291908181526020018280546104f190610925565b801561053c5780601f106105135761010080835404028352916020019161053c565b820191905f5260205f20905b81548152906001019060200180831161051f57829003601f168201915b505050505081565b6060600280548060200260200160405190810160405280929190818152602001828054801561059a57602002820191905f5260205f20905b81546001600160a01b0316815260019091019060200180831161057c575b5050505050905090565b6001600160a01b0381165f90815260208190526040902080546060919061042a90610925565b60016020525f9081526040902080546104c590610925565b6005546001600160a01b031633146106295760405162461bcd60e51b815260206004820152600a60248201526927b7363c9037bbb732b960b11b604482015260640161028d565b600480546001600160a01b03909216610100027fffffffffffffffffffffff0000000000000000000000000000000000000000ff909216919091179055565b6005546001600160a01b031633146106af5760405162461bcd60e51b815260206004820152600a60248201526927b7363c9037bbb732b960b11b604482015260640161028d565b60045460ff166107015760405162461bcd60e51b815260206004820152600e60248201527f546172676574206e6f7420736574000000000000000000000000000000000000604482015260640161028d565b60408051602081019091525f815260039061071c9082610a74565b506004805460ff19169055565b60028181548110610738575f80fd5b5f918252602090912001546001600160a01b0316905081565b600380546104c590610925565b5f8083601f84011261076e575f80fd5b50813567ffffffffffffffff811115610785575f80fd5b60208301915083602082850101111561079c575f80fd5b9250929050565b5f805f80604085870312156107b6575f80fd5b843567ffffffffffffffff808211156107cd575f80fd5b6107d98883890161075e565b909650945060208701359150808211156107f1575f80fd5b506107fe8782880161075e565b95989497509550505050565b5f806020838503121561081b575f80fd5b823567ffffffffffffffff811115610831575f80fd5b61083d8582860161075e565b90969095509350505050565b5f60208284031215610859575f80fd5b81356001600160a01b038116811461086f575f80fd5b9392505050565b5f602080835283518060208501525f5b818110156108a257858101830151858201604001528201610886565b505f604082860101526040601f19601f8301168501019250505092915050565b602080825282518282018190525f9190848201906040850190845b818110156109025783516001600160a01b0316835292840192918401916001016108dd565b50909695505050505050565b5f6020828403121561091e575f80fd5b5035919050565b600181811c9082168061093957607f821691505b60208210810361095757634e487b7160e01b5f52602260045260245ffd5b50919050565b634e487b7160e01b5f52604160045260245ffd5b601f8211156109b557805f5260205f20601f840160051c810160208510156109965750805b601f840160051c820191505b81811015610344575f81556001016109a2565b505050565b67ffffffffffffffff8311156109d2576109d261095d565b6109e6836109e08354610925565b83610971565b5f601f841160018114610a17575f8515610a005750838201355b5f19600387901b1c1916600186901b178355610344565b5f83815260208120601f198716915b82811015610a465786850135825560209485019460019092019101610a26565b5086821015610a62575f1960f88860031b161c19848701351681555b505060018560011b0183555050505050565b815167ffffffffffffffff811115610a8e57610a8e61095d565b610aa281610a9c8454610925565b84610971565b602080601f831160018114610ad5575f8415610abe5750858301515b5f19600386901b1c1916600185901b178555610b2c565b5f85815260208120601f198616915b82811015610b0357888601518255948401946001909101908401610ae4565b5085821015610b2057878501515f19600388901b60f8161c191681555b505060018460011b0185555b50505050505056fea164736f6c6343000818000a",
  "linkReferences": {},
  "deployedLinkReferences": {}
}